{
  "contractName": "Voting",
  "abi": [
    {
      "inputs": [
        {
          "internalType": "string",
          "name": "_eventName",
          "type": "string"
        }
      ],
      "stateMutability": "nonpayable",
      "type": "constructor"
    },
    {
      "anonymous": false,
      "inputs": [
        {
          "indexed": false,
          "internalType": "string",
          "name": "msg",
          "type": "string"
        }
      ],
      "name": "success",
      "type": "event"
    },
    {
      "inputs": [
        {
          "internalType": "uint256",
          "name": "",
          "type": "uint256"
        }
      ],
      "name": "candidateList",
      "outputs": [
        {
          "internalType": "string",
          "name": "name",
          "type": "string"
        },
        {
          "internalType": "uint256",
          "name": "age",
          "type": "uint256"
        },
        {
          "internalType": "bool",
          "name": "registered",
          "type": "bool"
        },
        {
          "internalType": "address",
          "name": "candidateAddress",
          "type": "address"
        },
        {
          "internalType": "uint256",
          "name": "votes",
          "type": "uint256"
        }
      ],
      "stateMutability": "view",
      "type": "function",
      "constant": true
    },
    {
      "inputs": [
        {
          "internalType": "address",
          "name": "",
          "type": "address"
        }
      ],
      "name": "candidates",
      "outputs": [
        {
          "internalType": "uint256",
          "name": "",
          "type": "uint256"
        }
      ],
      "stateMutability": "view",
      "type": "function",
      "constant": true
    },
    {
      "inputs": [],
      "name": "eventName",
      "outputs": [
        {
          "internalType": "string",
          "name": "",
          "type": "string"
        }
      ],
      "stateMutability": "view",
      "type": "function",
      "constant": true
    },
    {
      "inputs": [],
      "name": "owner",
      "outputs": [
        {
          "internalType": "address",
          "name": "",
          "type": "address"
        }
      ],
      "stateMutability": "view",
      "type": "function",
      "constant": true
    },
    {
      "inputs": [],
      "name": "totalVote",
      "outputs": [
        {
          "internalType": "uint256",
          "name": "",
          "type": "uint256"
        }
      ],
      "stateMutability": "view",
      "type": "function",
      "constant": true
    },
    {
      "inputs": [
        {
          "internalType": "address",
          "name": "",
          "type": "address"
        }
      ],
      "name": "voterList",
      "outputs": [
        {
          "internalType": "bool",
          "name": "registered",
          "type": "bool"
        },
        {
          "internalType": "bool",
          "name": "voted",
          "type": "bool"
        }
      ],
      "stateMutability": "view",
      "type": "function",
      "constant": true
    },
    {
      "inputs": [],
      "name": "winnerAddress",
      "outputs": [
        {
          "internalType": "address",
          "name": "",
          "type": "address"
        }
      ],
      "stateMutability": "view",
      "type": "function",
      "constant": true
    },
    {
      "inputs": [
        {
          "internalType": "string",
          "name": "_name",
          "type": "string"
        },
        {
          "internalType": "uint256",
          "name": "_age",
          "type": "uint256"
        },
        {
          "internalType": "address",
          "name": "_candidateAddress",
          "type": "address"
        }
      ],
      "name": "registerCandidates",
      "outputs": [],
      "stateMutability": "nonpayable",
      "type": "function"
    },
    {
      "inputs": [
        {
          "internalType": "address",
          "name": "_voterAddress",
          "type": "address"
        }
      ],
      "name": "whiteListAddress",
      "outputs": [],
      "stateMutability": "nonpayable",
      "type": "function"
    },
    {
      "inputs": [],
      "name": "startVoting",
      "outputs": [],
      "stateMutability": "nonpayable",
      "type": "function"
    },
    {
      "inputs": [
        {
          "internalType": "address",
          "name": "_candidateAddress",
          "type": "address"
        }
      ],
      "name": "putVote",
      "outputs": [],
      "stateMutability": "nonpayable",
      "type": "function"
    },
    {
      "inputs": [],
      "name": "stopVoting",
      "outputs": [],
      "stateMutability": "nonpayable",
      "type": "function"
    },
    {
      "inputs": [],
      "name": "getAllCandidate",
      "outputs": [
        {
          "components": [
            {
              "internalType": "string",
              "name": "name",
              "type": "string"
            },
            {
              "internalType": "uint256",
              "name": "age",
              "type": "uint256"
            },
            {
              "internalType": "bool",
              "name": "registered",
              "type": "bool"
            },
            {
              "internalType": "address",
              "name": "candidateAddress",
              "type": "address"
            },
            {
              "internalType": "uint256",
              "name": "votes",
              "type": "uint256"
            }
          ],
          "internalType": "struct Voting.Candidate[]",
          "name": "list",
          "type": "tuple[]"
        }
      ],
      "stateMutability": "view",
      "type": "function",
      "constant": true
    },
    {
      "inputs": [],
      "name": "votingStatus",
      "outputs": [
        {
          "internalType": "bool",
          "name": "",
          "type": "bool"
        }
      ],
      "stateMutability": "view",
      "type": "function",
      "constant": true
    },
    {
      "inputs": [],
      "name": "getWinner",
      "outputs": [
        {
          "components": [
            {
              "internalType": "string",
              "name": "name",
              "type": "string"
            },
            {
              "internalType": "uint256",
              "name": "age",
              "type": "uint256"
            },
            {
              "internalType": "bool",
              "name": "registered",
              "type": "bool"
            },
            {
              "internalType": "address",
              "name": "candidateAddress",
              "type": "address"
            },
            {
              "internalType": "uint256",
              "name": "votes",
              "type": "uint256"
            }
          ],
          "internalType": "struct Voting.Candidate",
          "name": "candidate",
          "type": "tuple"
        }
      ],
      "stateMutability": "view",
      "type": "function",
      "constant": true
    }
  ],
  "bytecode": "0x608060405234801562000010575f80fd5b5060405162002bfe38038062002bfe833981810160405281019062000036919062000233565b335f806101000a81548173ffffffffffffffffffffffffffffffffffffffff021916908373ffffffffffffffffffffffffffffffffffffffff1602179055508060029081620000869190620004b9565b505f6003819055505f60045f6101000a81548160ff021916908315150217905550506200059d565b5f604051905090565b5f80fd5b5f80fd5b5f80fd5b5f80fd5b5f601f19601f8301169050919050565b7f4e487b71000000000000000000000000000000000000000000000000000000005f52604160045260245ffd5b6200010f82620000c7565b810181811067ffffffffffffffff82111715620001315762000130620000d7565b5b80604052505050565b5f62000145620000ae565b905062000153828262000104565b919050565b5f67ffffffffffffffff821115620001755762000174620000d7565b5b6200018082620000c7565b9050602081019050919050565b5f5b83811015620001ac5780820151818401526020810190506200018f565b5f8484015250505050565b5f620001cd620001c78462000158565b6200013a565b905082815260208101848484011115620001ec57620001eb620000c3565b5b620001f98482856200018d565b509392505050565b5f82601f830112620002185762000217620000bf565b5b81516200022a848260208601620001b7565b91505092915050565b5f602082840312156200024b576200024a620000b7565b5b5f82015167ffffffffffffffff8111156200026b576200026a620000bb565b5b620002798482850162000201565b91505092915050565b5f81519050919050565b7f4e487b71000000000000000000000000000000000000000000000000000000005f52602260045260245ffd5b5f6002820490506001821680620002d157607f821691505b602082108103620002e757620002e66200028c565b5b50919050565b5f819050815f5260205f209050919050565b5f6020601f8301049050919050565b5f82821b905092915050565b5f600883026200034b7fffffffffffffffffffffffffffffffffffffffffffffffffffffffffffffffff826200030e565b6200035786836200030e565b95508019841693508086168417925050509392505050565b5f819050919050565b5f819050919050565b5f620003a16200039b62000395846200036f565b62000378565b6200036f565b9050919050565b5f819050919050565b620003bc8362000381565b620003d4620003cb82620003a8565b8484546200031a565b825550505050565b5f90565b620003ea620003dc565b620003f7818484620003b1565b505050565b5b818110156200041e57620004125f82620003e0565b600181019050620003fd565b5050565b601f8211156200046d576200043781620002ed565b6200044284620002ff565b8101602085101562000452578190505b6200046a6200046185620002ff565b830182620003fc565b50505b505050565b5f82821c905092915050565b5f6200048f5f198460080262000472565b1980831691505092915050565b5f620004a983836200047e565b9150826002028217905092915050565b620004c48262000282565b67ffffffffffffffff811115620004e057620004df620000d7565b5b620004ec8254620002b9565b620004f982828562000422565b5f60209050601f8311600181146200052f575f84156200051a578287015190505b6200052685826200049c565b86555062000595565b601f1984166200053f86620002ed565b5f5b82811015620005685784890151825560018201915060208501945060208101905062000541565b8683101562000588578489015162000584601f8916826200047e565b8355505b6001600288020188555050505b505050505050565b61265380620005ab5f395ff3fe608060405234801561000f575f80fd5b50600436106100f3575f3560e01c80638da5cb5b11610095578063ed7a4e0b11610064578063ed7a4e0b14610262578063efd5297c14610280578063f1cea4c71461029e578063fab2f86b146102bc576100f3565b80638da5cb5b146101d65780638e7ea5b2146101f4578063b13c744b14610212578063cf52a7b214610246576100f3565b80633c71a6d5116100d15780633c71a6d5146101505780638043c9c01461016c57806388fb6f741461018a5780638ab66a90146101a6576100f3565b806303b4caed146100f757806319f41a40146101285780631ec6b60a14610146575b5f80fd5b610111600480360381019061010c9190611536565b6102c6565b60405161011f92919061157b565b60405180910390f35b6101306102fe565b60405161013d91906115a2565b60405180910390f35b61014e610313565b005b61016a6004803603810190610165919061172a565b6103f1565b005b610174610731565b6040516101819190611810565b60405180910390f35b6101a4600480360381019061019f9190611536565b6107bd565b005b6101c060048036038101906101bb9190611536565b610c32565b6040516101cd919061183f565b60405180910390f35b6101de610c47565b6040516101eb9190611867565b60405180910390f35b6101fc610c6a565b6040516102099190611968565b60405180910390f35b61022c60048036038101906102279190611988565b610ea0565b60405161023d9594939291906119b3565b60405180910390f35b610260600480360381019061025b9190611536565b610f93565b005b61026a611211565b6040516102779190611867565b60405180910390f35b610288611236565b6040516102959190611b39565b60405180910390f35b6102a66113a5565b6040516102b3919061183f565b60405180910390f35b6102c46113ab565b005b6007602052805f5260405f205f91509050805f015f9054906101000a900460ff1690805f0160019054906101000a900460ff16905082565b5f60045f9054906101000a900460ff16905090565b5f8054906101000a900473ffffffffffffffffffffffffffffffffffffffff1673ffffffffffffffffffffffffffffffffffffffff163373ffffffffffffffffffffffffffffffffffffffff16146103a0576040517f08c379a000000000000000000000000000000000000000000000000000000000815260040161039790611ba3565b60405180910390fd5b600160045f6101000a81548160ff0219169083151502179055507f68f068b2f0d02fca99bc8285b62fce8668fe16b7c6a810351ea25bff358c0dd86040516103e790611c0b565b60405180910390a1565b5f8054906101000a900473ffffffffffffffffffffffffffffffffffffffff1673ffffffffffffffffffffffffffffffffffffffff163373ffffffffffffffffffffffffffffffffffffffff161461047e576040517f08c379a000000000000000000000000000000000000000000000000000000000815260040161047590611c99565b60405180910390fd5b5f8054906101000a900473ffffffffffffffffffffffffffffffffffffffff1673ffffffffffffffffffffffffffffffffffffffff168173ffffffffffffffffffffffffffffffffffffffff160361050b576040517f08c379a000000000000000000000000000000000000000000000000000000000815260040161050290611d01565b60405180910390fd5b5f60055f8373ffffffffffffffffffffffffffffffffffffffff1673ffffffffffffffffffffffffffffffffffffffff1681526020019081526020015f20541461058a576040517f08c379a000000000000000000000000000000000000000000000000000000000815260040161058190611d69565b60405180910390fd5b5f6040518060a001604052808581526020018481526020016001151581526020018373ffffffffffffffffffffffffffffffffffffffff1681526020015f81525090505f600680549050036105f657600660018160018154018082558091505003905f5260205f209050505b60068054905060055f8473ffffffffffffffffffffffffffffffffffffffff1673ffffffffffffffffffffffffffffffffffffffff1681526020019081526020015f2081905550600681908060018154018082558091505060019003905f5260205f2090600402015f909190919091505f820151815f0190816106799190611f81565b50602082015181600101556040820151816002015f6101000a81548160ff02191690831515021790555060608201518160020160016101000a81548173ffffffffffffffffffffffffffffffffffffffff021916908373ffffffffffffffffffffffffffffffffffffffff1602179055506080820151816003015550507f68f068b2f0d02fca99bc8285b62fce8668fe16b7c6a810351ea25bff358c0dd86040516107239061209a565b60405180910390a150505050565b6002805461073e90611db4565b80601f016020809104026020016040519081016040528092919081815260200182805461076a90611db4565b80156107b55780601f1061078c576101008083540402835291602001916107b5565b820191905f5260205f20905b81548152906001019060200180831161079857829003601f168201915b505050505081565b6001151560045f9054906101000a900460ff16151514610812576040517f08c379a000000000000000000000000000000000000000000000000000000000815260040161080990612128565b60405180910390fd5b5f8054906101000a900473ffffffffffffffffffffffffffffffffffffffff1673ffffffffffffffffffffffffffffffffffffffff163373ffffffffffffffffffffffffffffffffffffffff160361089f576040517f08c379a000000000000000000000000000000000000000000000000000000000815260040161089690612190565b60405180910390fd5b6001151560075f3373ffffffffffffffffffffffffffffffffffffffff1673ffffffffffffffffffffffffffffffffffffffff1681526020019081526020015f205f015f9054906101000a900460ff16151514610931576040517f08c379a0000000000000000000000000000000000000000000000000000000008152600401610928906121f8565b60405180910390fd5b5f151560075f3373ffffffffffffffffffffffffffffffffffffffff1673ffffffffffffffffffffffffffffffffffffffff1681526020019081526020015f205f0160019054906101000a900460ff161515146109c3576040517f08c379a00000000000000000000000000000000000000000000000000000000081526004016109ba90612260565b60405180910390fd5b60011515600660055f8473ffffffffffffffffffffffffffffffffffffffff1673ffffffffffffffffffffffffffffffffffffffff1681526020019081526020015f205481548110610a1857610a1761227e565b5b905f5260205f2090600402016002015f9054906101000a900460ff16151514610a76576040517f08c379a0000000000000000000000000000000000000000000000000000000008152600401610a6d906122f5565b60405180910390fd5b600660055f8373ffffffffffffffffffffffffffffffffffffffff1673ffffffffffffffffffffffffffffffffffffffff1681526020019081526020015f205481548110610ac757610ac661227e565b5b905f5260205f2090600402016003015f815480929190610ae690612340565b9190505550600160075f3373ffffffffffffffffffffffffffffffffffffffff1673ffffffffffffffffffffffffffffffffffffffff1681526020019081526020015f205f0160016101000a81548160ff0219169083151502179055505f600660055f8473ffffffffffffffffffffffffffffffffffffffff1673ffffffffffffffffffffffffffffffffffffffff1681526020019081526020015f205481548110610b9557610b9461227e565b5b905f5260205f209060040201600301549050806003541015610bf957806003819055508160015f6101000a81548173ffffffffffffffffffffffffffffffffffffffff021916908373ffffffffffffffffffffffffffffffffffffffff1602179055505b7f68f068b2f0d02fca99bc8285b62fce8668fe16b7c6a810351ea25bff358c0dd8604051610c26906123d1565b60405180910390a15050565b6005602052805f5260405f205f915090505481565b5f8054906101000a900473ffffffffffffffffffffffffffffffffffffffff1681565b610c72611488565b5f8054906101000a900473ffffffffffffffffffffffffffffffffffffffff1673ffffffffffffffffffffffffffffffffffffffff163373ffffffffffffffffffffffffffffffffffffffff1614610cff576040517f08c379a0000000000000000000000000000000000000000000000000000000008152600401610cf690612439565b60405180910390fd5b600660055f60015f9054906101000a900473ffffffffffffffffffffffffffffffffffffffff1673ffffffffffffffffffffffffffffffffffffffff1673ffffffffffffffffffffffffffffffffffffffff1681526020019081526020015f205481548110610d7157610d7061227e565b5b905f5260205f2090600402016040518060a00160405290815f82018054610d9790611db4565b80601f0160208091040260200160405190810160405280929190818152602001828054610dc390611db4565b8015610e0e5780601f10610de557610100808354040283529160200191610e0e565b820191905f5260205f20905b815481529060010190602001808311610df157829003601f168201915b5050505050815260200160018201548152602001600282015f9054906101000a900460ff161515151581526020016002820160019054906101000a900473ffffffffffffffffffffffffffffffffffffffff1673ffffffffffffffffffffffffffffffffffffffff1673ffffffffffffffffffffffffffffffffffffffff168152602001600382015481525050905090565b60068181548110610eaf575f80fd5b905f5260205f2090600402015f91509050805f018054610ece90611db4565b80601f0160208091040260200160405190810160405280929190818152602001828054610efa90611db4565b8015610f455780601f10610f1c57610100808354040283529160200191610f45565b820191905f5260205f20905b815481529060010190602001808311610f2857829003601f168201915b505050505090806001015490806002015f9054906101000a900460ff16908060020160019054906101000a900473ffffffffffffffffffffffffffffffffffffffff16908060030154905085565b5f8054906101000a900473ffffffffffffffffffffffffffffffffffffffff1673ffffffffffffffffffffffffffffffffffffffff168173ffffffffffffffffffffffffffffffffffffffff1603611020576040517f08c379a000000000000000000000000000000000000000000000000000000000815260040161101790612190565b60405180910390fd5b5f8054906101000a900473ffffffffffffffffffffffffffffffffffffffff1673ffffffffffffffffffffffffffffffffffffffff163373ffffffffffffffffffffffffffffffffffffffff16146110ad576040517f08c379a00000000000000000000000000000000000000000000000000000000081526004016110a4906124c7565b60405180910390fd5b5f151560075f8373ffffffffffffffffffffffffffffffffffffffff1673ffffffffffffffffffffffffffffffffffffffff1681526020019081526020015f205f015f9054906101000a900460ff1615151461113e576040517f08c379a00000000000000000000000000000000000000000000000000000000081526004016111359061252f565b60405180910390fd5b5f60405180604001604052806001151581526020015f151581525090508060075f8473ffffffffffffffffffffffffffffffffffffffff1673ffffffffffffffffffffffffffffffffffffffff1681526020019081526020015f205f820151815f015f6101000a81548160ff0219169083151502179055506020820151815f0160016101000a81548160ff0219169083151502179055509050507f68f068b2f0d02fca99bc8285b62fce8668fe16b7c6a810351ea25bff358c0dd860405161120590612597565b60405180910390a15050565b60015f9054906101000a900473ffffffffffffffffffffffffffffffffffffffff1681565b60606006805480602002602001604051908101604052809291908181526020015f905b8282101561139c578382905f5260205f2090600402016040518060a00160405290815f8201805461128990611db4565b80601f01602080910402602001604051908101604052809291908181526020018280546112b590611db4565b80156113005780601f106112d757610100808354040283529160200191611300565b820191905f5260205f20905b8154815290600101906020018083116112e357829003601f168201915b5050505050815260200160018201548152602001600282015f9054906101000a900460ff161515151581526020016002820160019054906101000a900473ffffffffffffffffffffffffffffffffffffffff1673ffffffffffffffffffffffffffffffffffffffff1673ffffffffffffffffffffffffffffffffffffffff16815260200160038201548152505081526020019060010190611259565b50505050905090565b60035481565b5f8054906101000a900473ffffffffffffffffffffffffffffffffffffffff1673ffffffffffffffffffffffffffffffffffffffff163373ffffffffffffffffffffffffffffffffffffffff1614611438576040517f08c379a000000000000000000000000000000000000000000000000000000000815260040161142f90611ba3565b60405180910390fd5b5f60045f6101000a81548160ff0219169083151502179055507f68f068b2f0d02fca99bc8285b62fce8668fe16b7c6a810351ea25bff358c0dd860405161147e906125ff565b60405180910390a1565b6040518060a00160405280606081526020015f81526020015f151581526020015f73ffffffffffffffffffffffffffffffffffffffff1681526020015f81525090565b5f604051905090565b5f80fd5b5f80fd5b5f73ffffffffffffffffffffffffffffffffffffffff82169050919050565b5f611505826114dc565b9050919050565b611515816114fb565b811461151f575f80fd5b50565b5f813590506115308161150c565b92915050565b5f6020828403121561154b5761154a6114d4565b5b5f61155884828501611522565b91505092915050565b5f8115159050919050565b61157581611561565b82525050565b5f60408201905061158e5f83018561156c565b61159b602083018461156c565b9392505050565b5f6020820190506115b55f83018461156c565b92915050565b5f80fd5b5f80fd5b5f601f19601f8301169050919050565b7f4e487b71000000000000000000000000000000000000000000000000000000005f52604160045260245ffd5b611609826115c3565b810181811067ffffffffffffffff82111715611628576116276115d3565b5b80604052505050565b5f61163a6114cb565b90506116468282611600565b919050565b5f67ffffffffffffffff821115611665576116646115d3565b5b61166e826115c3565b9050602081019050919050565b828183375f83830152505050565b5f61169b6116968461164b565b611631565b9050828152602081018484840111156116b7576116b66115bf565b5b6116c284828561167b565b509392505050565b5f82601f8301126116de576116dd6115bb565b5b81356116ee848260208601611689565b91505092915050565b5f819050919050565b611709816116f7565b8114611713575f80fd5b50565b5f8135905061172481611700565b92915050565b5f805f60608486031215611741576117406114d4565b5b5f84013567ffffffffffffffff81111561175e5761175d6114d8565b5b61176a868287016116ca565b935050602061177b86828701611716565b925050604061178c86828701611522565b9150509250925092565b5f81519050919050565b5f82825260208201905092915050565b5f5b838110156117cd5780820151818401526020810190506117b2565b5f8484015250505050565b5f6117e282611796565b6117ec81856117a0565b93506117fc8185602086016117b0565b611805816115c3565b840191505092915050565b5f6020820190508181035f83015261182881846117d8565b905092915050565b611839816116f7565b82525050565b5f6020820190506118525f830184611830565b92915050565b611861816114fb565b82525050565b5f60208201905061187a5f830184611858565b92915050565b5f82825260208201905092915050565b5f61189a82611796565b6118a48185611880565b93506118b48185602086016117b0565b6118bd816115c3565b840191505092915050565b6118d1816116f7565b82525050565b6118e081611561565b82525050565b6118ef816114fb565b82525050565b5f60a083015f8301518482035f86015261190f8282611890565b915050602083015161192460208601826118c8565b50604083015161193760408601826118d7565b50606083015161194a60608601826118e6565b50608083015161195d60808601826118c8565b508091505092915050565b5f6020820190508181035f83015261198081846118f5565b905092915050565b5f6020828403121561199d5761199c6114d4565b5b5f6119aa84828501611716565b91505092915050565b5f60a0820190508181035f8301526119cb81886117d8565b90506119da6020830187611830565b6119e7604083018661156c565b6119f46060830185611858565b611a016080830184611830565b9695505050505050565b5f81519050919050565b5f82825260208201905092915050565b5f819050602082019050919050565b5f60a083015f8301518482035f860152611a4e8282611890565b9150506020830151611a6360208601826118c8565b506040830151611a7660408601826118d7565b506060830151611a8960608601826118e6565b506080830151611a9c60808601826118c8565b508091505092915050565b5f611ab28383611a34565b905092915050565b5f602082019050919050565b5f611ad082611a0b565b611ada8185611a15565b935083602082028501611aec85611a25565b805f5b85811015611b275784840389528151611b088582611aa7565b9450611b1383611aba565b925060208a01995050600181019050611aef565b50829750879550505050505092915050565b5f6020820190508181035f830152611b518184611ac6565b905092915050565b7f4f6e6c79206f776e65722063616e20737461727420766f74696e6721210000005f82015250565b5f611b8d601d836117a0565b9150611b9882611b59565b602082019050919050565b5f6020820190508181035f830152611bba81611b81565b9050919050565b7f566f74696e6720537461727465642121000000000000000000000000000000005f82015250565b5f611bf56010836117a0565b9150611c0082611bc1565b602082019050919050565b5f6020820190508181035f830152611c2281611be9565b9050919050565b7f4f6e6c79206f776e65722063616e2072656769737465722043616e64696461745f8201527f6521210000000000000000000000000000000000000000000000000000000000602082015250565b5f611c836023836117a0565b9150611c8e82611c29565b604082019050919050565b5f6020820190508181035f830152611cb081611c77565b9050919050565b7f4f776e65722063616e206e6f74207061727469636970617465212100000000005f82015250565b5f611ceb601b836117a0565b9150611cf682611cb7565b602082019050919050565b5f6020820190508181035f830152611d1881611cdf565b9050919050565b7f43616e64696461746520616c72656164792072656769737465726564000000005f82015250565b5f611d53601c836117a0565b9150611d5e82611d1f565b602082019050919050565b5f6020820190508181035f830152611d8081611d47565b9050919050565b7f4e487b71000000000000000000000000000000000000000000000000000000005f52602260045260245ffd5b5f6002820490506001821680611dcb57607f821691505b602082108103611dde57611ddd611d87565b5b50919050565b5f819050815f5260205f209050919050565b5f6020601f8301049050919050565b5f82821b905092915050565b5f60088302611e407fffffffffffffffffffffffffffffffffffffffffffffffffffffffffffffffff82611e05565b611e4a8683611e05565b95508019841693508086168417925050509392505050565b5f819050919050565b5f611e85611e80611e7b846116f7565b611e62565b6116f7565b9050919050565b5f819050919050565b611e9e83611e6b565b611eb2611eaa82611e8c565b848454611e11565b825550505050565b5f90565b611ec6611eba565b611ed1818484611e95565b505050565b5b81811015611ef457611ee95f82611ebe565b600181019050611ed7565b5050565b601f821115611f3957611f0a81611de4565b611f1384611df6565b81016020851015611f22578190505b611f36611f2e85611df6565b830182611ed6565b50505b505050565b5f82821c905092915050565b5f611f595f1984600802611f3e565b1980831691505092915050565b5f611f718383611f4a565b9150826002028217905092915050565b611f8a82611796565b67ffffffffffffffff811115611fa357611fa26115d3565b5b611fad8254611db4565b611fb8828285611ef8565b5f60209050601f831160018114611fe9575f8415611fd7578287015190505b611fe18582611f66565b865550612048565b601f198416611ff786611de4565b5f5b8281101561201e57848901518255600182019150602085019450602081019050611ff9565b8683101561203b5784890151612037601f891682611f4a565b8355505b6001600288020188555050505b505050505050565b7f43616e64696461746520726567697374657265642121000000000000000000005f82015250565b5f6120846016836117a0565b915061208f82612050565b602082019050919050565b5f6020820190508181035f8301526120b181612078565b9050919050565b7f566f74696e67206e6f74207374617274656420796574206f7220656e646564215f8201527f2100000000000000000000000000000000000000000000000000000000000000602082015250565b5f6121126021836117a0565b915061211d826120b8565b604082019050919050565b5f6020820190508181035f83015261213f81612106565b9050919050565b7f4f776e65722063616e206e6f7420766f746521210000000000000000000000005f82015250565b5f61217a6014836117a0565b915061218582612146565b602082019050919050565b5f6020820190508181035f8301526121a78161216e565b9050919050565b7f566f746572206e6f7420726567697374657265642121000000000000000000005f82015250565b5f6121e26016836117a0565b91506121ed826121ae565b602082019050919050565b5f6020820190508181035f83015261220f816121d6565b9050919050565b7f416c726561647920766f746564212100000000000000000000000000000000005f82015250565b5f61224a600f836117a0565b915061225582612216565b602082019050919050565b5f6020820190508181035f8301526122778161223e565b9050919050565b7f4e487b71000000000000000000000000000000000000000000000000000000005f52603260045260245ffd5b7f43616e646964617465206e6f74207265676973746572656400000000000000005f82015250565b5f6122df6018836117a0565b91506122ea826122ab565b602082019050919050565b5f6020820190508181035f83015261230c816122d3565b9050919050565b7f4e487b71000000000000000000000000000000000000000000000000000000005f52601160045260245ffd5b5f61234a826116f7565b91507fffffffffffffffffffffffffffffffffffffffffffffffffffffffffffffffff820361237c5761237b612313565b5b600182019050919050565b7f566f7465642021210000000000000000000000000000000000000000000000005f82015250565b5f6123bb6008836117a0565b91506123c682612387565b602082019050919050565b5f6020820190508181035f8301526123e8816123af565b9050919050565b7f4f6e6c79206f776e65722063616e206465636c6172652077696e6e65722121005f82015250565b5f612423601f836117a0565b915061242e826123ef565b602082019050919050565b5f6020820190508181035f83015261245081612417565b9050919050565b7f4f6e6c79206f776e65722063616e2077686974656c69737420746865206164645f8201527f7265737365732121000000000000000000000000000000000000000000000000602082015250565b5f6124b16028836117a0565b91506124bc82612457565b604082019050919050565b5f6020820190508181035f8301526124de816124a5565b9050919050565b7f566f74657220616c7265616479207265676973746572656421210000000000005f82015250565b5f612519601a836117a0565b9150612524826124e5565b602082019050919050565b5f6020820190508181035f8301526125468161250d565b9050919050565b7f566f7465722072656769737465726564212100000000000000000000000000005f82015250565b5f6125816012836117a0565b915061258c8261254d565b602082019050919050565b5f6020820190508181035f8301526125ae81612575565b9050919050565b7f566f74696e672073746f706564212100000000000000000000000000000000005f82015250565b5f6125e9600f836117a0565b91506125f4826125b5565b602082019050919050565b5f6020820190508181035f830152612616816125dd565b905091905056fea2646970667358221220a7ce4c847ae0a3de037afd3ec6cec68d6849a12f49d6ffaf0550e5ff6930b62864736f6c63430008170033",
  "immutableReferences": {},
  "source": "// SPDX-License-Identifier: GPL-3.0\n\npragma solidity ^0.8.13;\n\ncontract Voting {\n\n    address public owner;\n    address public winnerAddress;\n    string public eventName;\n    uint public totalVote;\n    bool votingStarted;\n\n    struct Candidate{\n        string name;\n        uint age;\n        bool registered;\n        address candidateAddress;\n        uint votes;\n    }\n\n    struct Voter{\n        bool registered;\n        bool voted;\n    }\n\n    event success(string msg);\n    mapping(address=>uint) public candidates;\n    Candidate[] public candidateList;\n    mapping(address=>Voter) public voterList;\n\n    constructor(string memory _eventName){\n        owner = msg.sender;\n        eventName = _eventName;\n        totalVote = 0;\n        votingStarted=false;\n    }\n\n    function registerCandidates(string memory _name, uint _age, address _candidateAddress) external {\n        require(msg.sender == owner, \"Only owner can register Candidate!!\");\n        require(_candidateAddress != owner, \"Owner can not participate!!\");\n        require(candidates[_candidateAddress] == 0, \"Candidate already registered\");\n        Candidate memory candidate = Candidate({\n            name: _name,\n            age: _age,\n            registered: true,\n            votes: 0,\n            candidateAddress: _candidateAddress\n        });\n        if(candidateList.length == 0){ //not pushing any candidate on location zero;\n            candidateList.push();\n        }\n        candidates[_candidateAddress] = candidateList.length;\n        candidateList.push(candidate);\n        emit success(\"Candidate registered!!\");\n    }\n\n    function whiteListAddress(address _voterAddress) external {\n        require(_voterAddress != owner, \"Owner can not vote!!\");\n        require(msg.sender == owner, \"Only owner can whitelist the addresses!!\");\n        require(voterList[_voterAddress].registered == false, \"Voter already registered!!\");\n        Voter memory voter = Voter({\n            registered: true,\n            voted: false\n        });\n\n        voterList[_voterAddress] = voter;\n        emit success(\"Voter registered!!\");\n    }\n\n    function startVoting() external {\n        require(msg.sender == owner, \"Only owner can start voting!!\");\n        votingStarted = true;\n        emit success(\"Voting Started!!\");\n    }\n\n    function putVote(address _candidateAddress) external {\n        require(votingStarted == true, \"Voting not started yet or ended!!\");\n        require(msg.sender != owner, \"Owner can not vote!!\");\n        require(voterList[msg.sender].registered == true, \"Voter not registered!!\");\n        require(voterList[msg.sender].voted == false, \"Already voted!!\");\n        require(candidateList[candidates[_candidateAddress]].registered == true, \"Candidate not registered\");\n\n        candidateList[candidates[_candidateAddress]].votes++;\n        voterList[msg.sender].voted =true;\n\n        uint candidateVotes = candidateList[candidates[_candidateAddress]].votes;\n\n        if(totalVote < candidateVotes){\n            totalVote = candidateVotes;\n            winnerAddress = _candidateAddress;\n        }\n        emit success(\"Voted !!\");\n        \n    }\n\n    function stopVoting() external {\n        require(msg.sender == owner, \"Only owner can start voting!!\");\n        votingStarted = false;\n        emit success(\"Voting stoped!!\");\n    }\n\n    function getAllCandidate() external view returns(Candidate[] memory list){\n        return candidateList;\n    }\n\n    function votingStatus() external view returns(bool){\n        return votingStarted;\n    }\n\n    function getWinner() public view returns(Candidate memory candidate){\n        require(msg.sender == owner, \"Only owner can declare winner!!\");\n        return candidateList[candidates[winnerAddress]];\n    }\n}",
  "sourcePath": "/Users/suyash/Project/VotingDapp/contracts/Voting.sol",
  "compiler": {
    "name": "solc",
    "version": "0.8.23+commit.f704f362.Emscripten.clang"
  },
  "schemaVersion": "3.4.16",
  "updatedAt": "2024-01-17T08:48:37.581Z",
  "networkType": "ethereum",
  "devdoc": {
    "kind": "dev",
    "methods": {},
    "version": 1
  },
  "userdoc": {
    "kind": "user",
    "methods": {},
    "version": 1
  }
}