{
  "contractName": "Voting",
  "abi": [
    {
      "inputs": [
        {
          "internalType": "string",
          "name": "_eventName",
          "type": "string"
        }
      ],
      "stateMutability": "nonpayable",
      "type": "constructor"
    },
    {
      "anonymous": false,
      "inputs": [],
      "name": "VotingStarted",
      "type": "event"
    },
    {
      "anonymous": false,
      "inputs": [
        {
          "indexed": true,
          "internalType": "string",
          "name": "msg",
          "type": "string"
        }
      ],
      "name": "success",
      "type": "event"
    },
    {
      "inputs": [
        {
          "internalType": "uint256",
          "name": "",
          "type": "uint256"
        }
      ],
      "name": "candidateList",
      "outputs": [
        {
          "internalType": "string",
          "name": "name",
          "type": "string"
        },
        {
          "internalType": "uint256",
          "name": "age",
          "type": "uint256"
        },
        {
          "internalType": "bool",
          "name": "registered",
          "type": "bool"
        },
        {
          "internalType": "address",
          "name": "candidateAddress",
          "type": "address"
        },
        {
          "internalType": "uint256",
          "name": "votes",
          "type": "uint256"
        }
      ],
      "stateMutability": "view",
      "type": "function",
      "constant": true
    },
    {
      "inputs": [
        {
          "internalType": "address",
          "name": "",
          "type": "address"
        }
      ],
      "name": "candidates",
      "outputs": [
        {
          "internalType": "uint256",
          "name": "",
          "type": "uint256"
        }
      ],
      "stateMutability": "view",
      "type": "function",
      "constant": true
    },
    {
      "inputs": [],
      "name": "eventName",
      "outputs": [
        {
          "internalType": "string",
          "name": "",
          "type": "string"
        }
      ],
      "stateMutability": "view",
      "type": "function",
      "constant": true
    },
    {
      "inputs": [],
      "name": "owner",
      "outputs": [
        {
          "internalType": "address",
          "name": "",
          "type": "address"
        }
      ],
      "stateMutability": "view",
      "type": "function",
      "constant": true
    },
    {
      "inputs": [],
      "name": "totalVote",
      "outputs": [
        {
          "internalType": "uint256",
          "name": "",
          "type": "uint256"
        }
      ],
      "stateMutability": "view",
      "type": "function",
      "constant": true
    },
    {
      "inputs": [
        {
          "internalType": "address",
          "name": "",
          "type": "address"
        }
      ],
      "name": "voterList",
      "outputs": [
        {
          "internalType": "bool",
          "name": "registered",
          "type": "bool"
        },
        {
          "internalType": "bool",
          "name": "voted",
          "type": "bool"
        }
      ],
      "stateMutability": "view",
      "type": "function",
      "constant": true
    },
    {
      "inputs": [],
      "name": "winnerAddress",
      "outputs": [
        {
          "internalType": "address",
          "name": "",
          "type": "address"
        }
      ],
      "stateMutability": "view",
      "type": "function",
      "constant": true
    },
    {
      "inputs": [
        {
          "internalType": "string",
          "name": "_name",
          "type": "string"
        },
        {
          "internalType": "uint256",
          "name": "_age",
          "type": "uint256"
        },
        {
          "internalType": "address",
          "name": "_candidateAddress",
          "type": "address"
        }
      ],
      "name": "registerCandidates",
      "outputs": [],
      "stateMutability": "nonpayable",
      "type": "function"
    },
    {
      "inputs": [
        {
          "internalType": "address",
          "name": "_voterAddress",
          "type": "address"
        }
      ],
      "name": "whiteListAddress",
      "outputs": [],
      "stateMutability": "nonpayable",
      "type": "function"
    },
    {
      "inputs": [],
      "name": "startVoting",
      "outputs": [],
      "stateMutability": "nonpayable",
      "type": "function"
    },
    {
      "inputs": [
        {
          "internalType": "address",
          "name": "_candidateAddress",
          "type": "address"
        }
      ],
      "name": "putVote",
      "outputs": [],
      "stateMutability": "nonpayable",
      "type": "function"
    },
    {
      "inputs": [],
      "name": "stopVoting",
      "outputs": [],
      "stateMutability": "nonpayable",
      "type": "function"
    },
    {
      "inputs": [],
      "name": "getAllCandidate",
      "outputs": [
        {
          "components": [
            {
              "internalType": "string",
              "name": "name",
              "type": "string"
            },
            {
              "internalType": "uint256",
              "name": "age",
              "type": "uint256"
            },
            {
              "internalType": "bool",
              "name": "registered",
              "type": "bool"
            },
            {
              "internalType": "address",
              "name": "candidateAddress",
              "type": "address"
            },
            {
              "internalType": "uint256",
              "name": "votes",
              "type": "uint256"
            }
          ],
          "internalType": "struct Voting.Candidate[]",
          "name": "list",
          "type": "tuple[]"
        }
      ],
      "stateMutability": "view",
      "type": "function",
      "constant": true
    },
    {
      "inputs": [],
      "name": "votingStatus",
      "outputs": [
        {
          "internalType": "bool",
          "name": "",
          "type": "bool"
        }
      ],
      "stateMutability": "view",
      "type": "function",
      "constant": true
    },
    {
      "inputs": [],
      "name": "getWinner",
      "outputs": [
        {
          "components": [
            {
              "internalType": "string",
              "name": "name",
              "type": "string"
            },
            {
              "internalType": "uint256",
              "name": "age",
              "type": "uint256"
            },
            {
              "internalType": "bool",
              "name": "registered",
              "type": "bool"
            },
            {
              "internalType": "address",
              "name": "candidateAddress",
              "type": "address"
            },
            {
              "internalType": "uint256",
              "name": "votes",
              "type": "uint256"
            }
          ],
          "internalType": "struct Voting.Candidate",
          "name": "candidate",
          "type": "tuple"
        }
      ],
      "stateMutability": "view",
      "type": "function",
      "constant": true
    }
  ],
  "bytecode": "0x60806040523480156200001157600080fd5b50604051620028a1380380620028a1833981810160405281019062000037919062000307565b336000806101000a81548173ffffffffffffffffffffffffffffffffffffffff021916908373ffffffffffffffffffffffffffffffffffffffff16021790555080600290805190602001906200008f929190620000ba565b5060006003819055506000600460006101000a81548160ff02191690831515021790555050620003bc565b828054620000c89062000387565b90600052602060002090601f016020900481019282620000ec576000855562000138565b82601f106200010757805160ff191683800117855562000138565b8280016001018555821562000138579182015b82811115620001375782518255916020019190600101906200011a565b5b5090506200014791906200014b565b5090565b5b80821115620001665760008160009055506001016200014c565b5090565b6000604051905090565b600080fd5b600080fd5b600080fd5b600080fd5b6000601f19601f8301169050919050565b7f4e487b7100000000000000000000000000000000000000000000000000000000600052604160045260246000fd5b620001d38262000188565b810181811067ffffffffffffffff82111715620001f557620001f462000199565b5b80604052505050565b60006200020a6200016a565b9050620002188282620001c8565b919050565b600067ffffffffffffffff8211156200023b576200023a62000199565b5b620002468262000188565b9050602081019050919050565b60005b838110156200027357808201518184015260208101905062000256565b8381111562000283576000848401525b50505050565b6000620002a06200029a846200021d565b620001fe565b905082815260208101848484011115620002bf57620002be62000183565b5b620002cc84828562000253565b509392505050565b600082601f830112620002ec57620002eb6200017e565b5b8151620002fe84826020860162000289565b91505092915050565b60006020828403121562000320576200031f62000174565b5b600082015167ffffffffffffffff81111562000341576200034062000179565b5b6200034f84828501620002d4565b91505092915050565b7f4e487b7100000000000000000000000000000000000000000000000000000000600052602260045260246000fd5b60006002820490506001821680620003a057607f821691505b602082108103620003b657620003b562000358565b5b50919050565b6124d580620003cc6000396000f3fe608060405234801561001057600080fd5b50600436106100f55760003560e01c80638da5cb5b11610097578063ed7a4e0b11610066578063ed7a4e0b14610265578063efd5297c14610283578063f1cea4c7146102a1578063fab2f86b146102bf576100f5565b80638da5cb5b146101d95780638e7ea5b2146101f7578063b13c744b14610215578063cf52a7b214610249576100f5565b80633c71a6d5116100d35780633c71a6d5146101535780638043c9c01461016f57806388fb6f741461018d5780638ab66a90146101a9576100f5565b806303b4caed146100fa57806319f41a401461012b5780631ec6b60a14610149575b600080fd5b610114600480360381019061010f919061162e565b6102c9565b604051610122929190611676565b60405180910390f35b610133610307565b604051610140919061169f565b60405180910390f35b61015161031e565b005b61016d60048036038101906101689190611836565b610435565b005b610177610799565b604051610184919061192d565b60405180910390f35b6101a760048036038101906101a2919061162e565b610827565b005b6101c360048036038101906101be919061162e565b610cc4565b6040516101d0919061195e565b60405180910390f35b6101e1610cdc565b6040516101ee9190611988565b60405180910390f35b6101ff610d00565b60405161020c9190611a90565b60405180910390f35b61022f600480360381019061022a9190611ab2565b610eb2565b604051610240959493929190611adf565b60405180910390f35b610263600480360381019061025e919061162e565b610fad565b005b61026d611245565b60405161027a9190611988565b60405180910390f35b61028b61126b565b6040516102989190611c71565b60405180910390f35b6102a96113e1565b6040516102b6919061195e565b60405180910390f35b6102c76113e7565b005b60076020528060005260406000206000915090508060000160009054906101000a900460ff16908060000160019054906101000a900460ff16905082565b6000600460009054906101000a900460ff16905090565b60008054906101000a900473ffffffffffffffffffffffffffffffffffffffff1673ffffffffffffffffffffffffffffffffffffffff163373ffffffffffffffffffffffffffffffffffffffff16146103ac576040517f08c379a00000000000000000000000000000000000000000000000000000000081526004016103a390611cdf565b60405180910390fd5b6001600460006101000a81548160ff0219169083151502179055507f877e2548498f42b7975a186b94ef1d32c86d420b7b806dd2be2bea293b89590460405160405180910390a16040516103ff90611d56565b60405180910390207f68f068b2f0d02fca99bc8285b62fce8668fe16b7c6a810351ea25bff358c0dd860405160405180910390a2565b60008054906101000a900473ffffffffffffffffffffffffffffffffffffffff1673ffffffffffffffffffffffffffffffffffffffff163373ffffffffffffffffffffffffffffffffffffffff16146104c3576040517f08c379a00000000000000000000000000000000000000000000000000000000081526004016104ba90611ddd565b60405180910390fd5b60008054906101000a900473ffffffffffffffffffffffffffffffffffffffff1673ffffffffffffffffffffffffffffffffffffffff168173ffffffffffffffffffffffffffffffffffffffff1603610551576040517f08c379a000000000000000000000000000000000000000000000000000000000815260040161054890611e49565b60405180910390fd5b6000600560008373ffffffffffffffffffffffffffffffffffffffff1673ffffffffffffffffffffffffffffffffffffffff16815260200190815260200160002054146105d3576040517f08c379a00000000000000000000000000000000000000000000000000000000081526004016105ca90611eb5565b60405180910390fd5b60006040518060a001604052808581526020018481526020016001151581526020018373ffffffffffffffffffffffffffffffffffffffff16815260200160008152509050600060068054905003610644576006600181600181540180825580915050039060005260206000209050505b600680549050600560008473ffffffffffffffffffffffffffffffffffffffff1673ffffffffffffffffffffffffffffffffffffffff16815260200190815260200160002081905550600681908060018154018082558091505060019003906000526020600020906004020160009091909190915060008201518160000190805190602001906106d59291906114d2565b506020820151816001015560408201518160020160006101000a81548160ff02191690831515021790555060608201518160020160016101000a81548173ffffffffffffffffffffffffffffffffffffffff021916908373ffffffffffffffffffffffffffffffffffffffff16021790555060808201518160030155505060405161075f90611f21565b60405180910390207f68f068b2f0d02fca99bc8285b62fce8668fe16b7c6a810351ea25bff358c0dd860405160405180910390a250505050565b600280546107a690611f65565b80601f01602080910402602001604051908101604052809291908181526020018280546107d290611f65565b801561081f5780601f106107f45761010080835404028352916020019161081f565b820191906000526020600020905b81548152906001019060200180831161080257829003601f168201915b505050505081565b60011515600460009054906101000a900460ff1615151461087d576040517f08c379a000000000000000000000000000000000000000000000000000000000815260040161087490612008565b60405180910390fd5b60008054906101000a900473ffffffffffffffffffffffffffffffffffffffff1673ffffffffffffffffffffffffffffffffffffffff163373ffffffffffffffffffffffffffffffffffffffff160361090b576040517f08c379a000000000000000000000000000000000000000000000000000000000815260040161090290612074565b60405180910390fd5b60011515600760003373ffffffffffffffffffffffffffffffffffffffff1673ffffffffffffffffffffffffffffffffffffffff16815260200190815260200160002060000160009054906101000a900460ff161515146109a1576040517f08c379a0000000000000000000000000000000000000000000000000000000008152600401610998906120e0565b60405180910390fd5b60001515600760003373ffffffffffffffffffffffffffffffffffffffff1673ffffffffffffffffffffffffffffffffffffffff16815260200190815260200160002060000160019054906101000a900460ff16151514610a37576040517f08c379a0000000000000000000000000000000000000000000000000000000008152600401610a2e9061214c565b60405180910390fd5b600115156006600560008473ffffffffffffffffffffffffffffffffffffffff1673ffffffffffffffffffffffffffffffffffffffff1681526020019081526020016000205481548110610a8e57610a8d61216c565b5b906000526020600020906004020160020160009054906101000a900460ff16151514610aef576040517f08c379a0000000000000000000000000000000000000000000000000000000008152600401610ae6906121e7565b60405180910390fd5b6006600560008373ffffffffffffffffffffffffffffffffffffffff1673ffffffffffffffffffffffffffffffffffffffff1681526020019081526020016000205481548110610b4257610b4161216c565b5b90600052602060002090600402016003016000815480929190610b6490612236565b91905055506001600760003373ffffffffffffffffffffffffffffffffffffffff1673ffffffffffffffffffffffffffffffffffffffff16815260200190815260200160002060000160016101000a81548160ff02191690831515021790555060006006600560008473ffffffffffffffffffffffffffffffffffffffff1673ffffffffffffffffffffffffffffffffffffffff1681526020019081526020016000205481548110610c1957610c1861216c565b5b9060005260206000209060040201600301549050806003541015610c80578060038190555081600160006101000a81548173ffffffffffffffffffffffffffffffffffffffff021916908373ffffffffffffffffffffffffffffffffffffffff1602179055505b604051610c8c906122ca565b60405180910390207f68f068b2f0d02fca99bc8285b62fce8668fe16b7c6a810351ea25bff358c0dd860405160405180910390a25050565b60056020528060005260406000206000915090505481565b60008054906101000a900473ffffffffffffffffffffffffffffffffffffffff1681565b610d08611558565b600660056000600160009054906101000a900473ffffffffffffffffffffffffffffffffffffffff1673ffffffffffffffffffffffffffffffffffffffff1673ffffffffffffffffffffffffffffffffffffffff1681526020019081526020016000205481548110610d7d57610d7c61216c565b5b90600052602060002090600402016040518060a0016040529081600082018054610da690611f65565b80601f0160208091040260200160405190810160405280929190818152602001828054610dd290611f65565b8015610e1f5780601f10610df457610100808354040283529160200191610e1f565b820191906000526020600020905b815481529060010190602001808311610e0257829003601f168201915b50505050508152602001600182015481526020016002820160009054906101000a900460ff161515151581526020016002820160019054906101000a900473ffffffffffffffffffffffffffffffffffffffff1673ffffffffffffffffffffffffffffffffffffffff1673ffffffffffffffffffffffffffffffffffffffff168152602001600382015481525050905090565b60068181548110610ec257600080fd5b9060005260206000209060040201600091509050806000018054610ee590611f65565b80601f0160208091040260200160405190810160405280929190818152602001828054610f1190611f65565b8015610f5e5780601f10610f3357610100808354040283529160200191610f5e565b820191906000526020600020905b815481529060010190602001808311610f4157829003601f168201915b5050505050908060010154908060020160009054906101000a900460ff16908060020160019054906101000a900473ffffffffffffffffffffffffffffffffffffffff16908060030154905085565b60008054906101000a900473ffffffffffffffffffffffffffffffffffffffff1673ffffffffffffffffffffffffffffffffffffffff168173ffffffffffffffffffffffffffffffffffffffff160361103b576040517f08c379a000000000000000000000000000000000000000000000000000000000815260040161103290612074565b60405180910390fd5b60008054906101000a900473ffffffffffffffffffffffffffffffffffffffff1673ffffffffffffffffffffffffffffffffffffffff163373ffffffffffffffffffffffffffffffffffffffff16146110c9576040517f08c379a00000000000000000000000000000000000000000000000000000000081526004016110c090612351565b60405180910390fd5b60001515600760008373ffffffffffffffffffffffffffffffffffffffff1673ffffffffffffffffffffffffffffffffffffffff16815260200190815260200160002060000160009054906101000a900460ff1615151461115f576040517f08c379a0000000000000000000000000000000000000000000000000000000008152600401611156906123bd565b60405180910390fd5b6000604051806040016040528060011515815260200160001515815250905080600760008473ffffffffffffffffffffffffffffffffffffffff1673ffffffffffffffffffffffffffffffffffffffff16815260200190815260200160002060008201518160000160006101000a81548160ff02191690831515021790555060208201518160000160016101000a81548160ff02191690831515021790555090505060405161120d90612429565b60405180910390207f68f068b2f0d02fca99bc8285b62fce8668fe16b7c6a810351ea25bff358c0dd860405160405180910390a25050565b600160009054906101000a900473ffffffffffffffffffffffffffffffffffffffff1681565b60606006805480602002602001604051908101604052809291908181526020016000905b828210156113d857838290600052602060002090600402016040518060a00160405290816000820180546112c290611f65565b80601f01602080910402602001604051908101604052809291908181526020018280546112ee90611f65565b801561133b5780601f106113105761010080835404028352916020019161133b565b820191906000526020600020905b81548152906001019060200180831161131e57829003601f168201915b50505050508152602001600182015481526020016002820160009054906101000a900460ff161515151581526020016002820160019054906101000a900473ffffffffffffffffffffffffffffffffffffffff1673ffffffffffffffffffffffffffffffffffffffff1673ffffffffffffffffffffffffffffffffffffffff1681526020016003820154815250508152602001906001019061128f565b50505050905090565b60035481565b60008054906101000a900473ffffffffffffffffffffffffffffffffffffffff1673ffffffffffffffffffffffffffffffffffffffff163373ffffffffffffffffffffffffffffffffffffffff1614611475576040517f08c379a000000000000000000000000000000000000000000000000000000000815260040161146c90611cdf565b60405180910390fd5b6000600460006101000a81548160ff02191690831515021790555060405161149c9061248a565b60405180910390207f68f068b2f0d02fca99bc8285b62fce8668fe16b7c6a810351ea25bff358c0dd860405160405180910390a2565b8280546114de90611f65565b90600052602060002090601f0160209004810192826115005760008555611547565b82601f1061151957805160ff1916838001178555611547565b82800160010185558215611547579182015b8281111561154657825182559160200191906001019061152b565b5b509050611554919061159f565b5090565b6040518060a001604052806060815260200160008152602001600015158152602001600073ffffffffffffffffffffffffffffffffffffffff168152602001600081525090565b5b808211156115b85760008160009055506001016115a0565b5090565b6000604051905090565b600080fd5b600080fd5b600073ffffffffffffffffffffffffffffffffffffffff82169050919050565b60006115fb826115d0565b9050919050565b61160b816115f0565b811461161657600080fd5b50565b60008135905061162881611602565b92915050565b600060208284031215611644576116436115c6565b5b600061165284828501611619565b91505092915050565b60008115159050919050565b6116708161165b565b82525050565b600060408201905061168b6000830185611667565b6116986020830184611667565b9392505050565b60006020820190506116b46000830184611667565b92915050565b600080fd5b600080fd5b6000601f19601f8301169050919050565b7f4e487b7100000000000000000000000000000000000000000000000000000000600052604160045260246000fd5b61170d826116c4565b810181811067ffffffffffffffff8211171561172c5761172b6116d5565b5b80604052505050565b600061173f6115bc565b905061174b8282611704565b919050565b600067ffffffffffffffff82111561176b5761176a6116d5565b5b611774826116c4565b9050602081019050919050565b82818337600083830152505050565b60006117a361179e84611750565b611735565b9050828152602081018484840111156117bf576117be6116bf565b5b6117ca848285611781565b509392505050565b600082601f8301126117e7576117e66116ba565b5b81356117f7848260208601611790565b91505092915050565b6000819050919050565b61181381611800565b811461181e57600080fd5b50565b6000813590506118308161180a565b92915050565b60008060006060848603121561184f5761184e6115c6565b5b600084013567ffffffffffffffff81111561186d5761186c6115cb565b5b611879868287016117d2565b935050602061188a86828701611821565b925050604061189b86828701611619565b9150509250925092565b600081519050919050565b600082825260208201905092915050565b60005b838110156118df5780820151818401526020810190506118c4565b838111156118ee576000848401525b50505050565b60006118ff826118a5565b61190981856118b0565b93506119198185602086016118c1565b611922816116c4565b840191505092915050565b6000602082019050818103600083015261194781846118f4565b905092915050565b61195881611800565b82525050565b6000602082019050611973600083018461194f565b92915050565b611982816115f0565b82525050565b600060208201905061199d6000830184611979565b92915050565b600082825260208201905092915050565b60006119bf826118a5565b6119c981856119a3565b93506119d98185602086016118c1565b6119e2816116c4565b840191505092915050565b6119f681611800565b82525050565b611a058161165b565b82525050565b611a14816115f0565b82525050565b600060a0830160008301518482036000860152611a3782826119b4565b9150506020830151611a4c60208601826119ed565b506040830151611a5f60408601826119fc565b506060830151611a726060860182611a0b565b506080830151611a8560808601826119ed565b508091505092915050565b60006020820190508181036000830152611aaa8184611a1a565b905092915050565b600060208284031215611ac857611ac76115c6565b5b6000611ad684828501611821565b91505092915050565b600060a0820190508181036000830152611af981886118f4565b9050611b08602083018761194f565b611b156040830186611667565b611b226060830185611979565b611b2f608083018461194f565b9695505050505050565b600081519050919050565b600082825260208201905092915050565b6000819050602082019050919050565b600060a0830160008301518482036000860152611b8282826119b4565b9150506020830151611b9760208601826119ed565b506040830151611baa60408601826119fc565b506060830151611bbd6060860182611a0b565b506080830151611bd060808601826119ed565b508091505092915050565b6000611be78383611b65565b905092915050565b6000602082019050919050565b6000611c0782611b39565b611c118185611b44565b935083602082028501611c2385611b55565b8060005b85811015611c5f5784840389528151611c408582611bdb565b9450611c4b83611bef565b925060208a01995050600181019050611c27565b50829750879550505050505092915050565b60006020820190508181036000830152611c8b8184611bfc565b905092915050565b7f4f6e6c79206f776e65722063616e20737461727420766f74696e672121000000600082015250565b6000611cc9601d836118b0565b9150611cd482611c93565b602082019050919050565b60006020820190508181036000830152611cf881611cbc565b9050919050565b600081905092915050565b7f566f74696e672053746172746564212100000000000000000000000000000000600082015250565b6000611d40601083611cff565b9150611d4b82611d0a565b601082019050919050565b6000611d6182611d33565b9150819050919050565b7f4f6e6c79206f776e65722063616e2072656769737465722043616e646964617460008201527f6521210000000000000000000000000000000000000000000000000000000000602082015250565b6000611dc76023836118b0565b9150611dd282611d6b565b604082019050919050565b60006020820190508181036000830152611df681611dba565b9050919050565b7f4f776e65722063616e206e6f7420706172746963697061746521210000000000600082015250565b6000611e33601b836118b0565b9150611e3e82611dfd565b602082019050919050565b60006020820190508181036000830152611e6281611e26565b9050919050565b7f43616e64696461746520616c7265616479207265676973746572656400000000600082015250565b6000611e9f601c836118b0565b9150611eaa82611e69565b602082019050919050565b60006020820190508181036000830152611ece81611e92565b9050919050565b7f43616e6469646174652072656769737465726564212100000000000000000000600082015250565b6000611f0b601683611cff565b9150611f1682611ed5565b601682019050919050565b6000611f2c82611efe565b9150819050919050565b7f4e487b7100000000000000000000000000000000000000000000000000000000600052602260045260246000fd5b60006002820490506001821680611f7d57607f821691505b602082108103611f9057611f8f611f36565b5b50919050565b7f566f74696e67206e6f74207374617274656420796574206f7220656e6465642160008201527f2100000000000000000000000000000000000000000000000000000000000000602082015250565b6000611ff26021836118b0565b9150611ffd82611f96565b604082019050919050565b6000602082019050818103600083015261202181611fe5565b9050919050565b7f4f776e65722063616e206e6f7420766f74652121000000000000000000000000600082015250565b600061205e6014836118b0565b915061206982612028565b602082019050919050565b6000602082019050818103600083015261208d81612051565b9050919050565b7f566f746572206e6f742072656769737465726564212100000000000000000000600082015250565b60006120ca6016836118b0565b91506120d582612094565b602082019050919050565b600060208201905081810360008301526120f9816120bd565b9050919050565b7f416c726561647920766f74656421210000000000000000000000000000000000600082015250565b6000612136600f836118b0565b915061214182612100565b602082019050919050565b6000602082019050818103600083015261216581612129565b9050919050565b7f4e487b7100000000000000000000000000000000000000000000000000000000600052603260045260246000fd5b7f43616e646964617465206e6f7420726567697374657265640000000000000000600082015250565b60006121d16018836118b0565b91506121dc8261219b565b602082019050919050565b60006020820190508181036000830152612200816121c4565b9050919050565b7f4e487b7100000000000000000000000000000000000000000000000000000000600052601160045260246000fd5b600061224182611800565b91507fffffffffffffffffffffffffffffffffffffffffffffffffffffffffffffffff820361227357612272612207565b5b600182019050919050565b7f566f746564202121000000000000000000000000000000000000000000000000600082015250565b60006122b4600883611cff565b91506122bf8261227e565b600882019050919050565b60006122d5826122a7565b9150819050919050565b7f4f6e6c79206f776e65722063616e2077686974656c697374207468652061646460008201527f7265737365732121000000000000000000000000000000000000000000000000602082015250565b600061233b6028836118b0565b9150612346826122df565b604082019050919050565b6000602082019050818103600083015261236a8161232e565b9050919050565b7f566f74657220616c726561647920726567697374657265642121000000000000600082015250565b60006123a7601a836118b0565b91506123b282612371565b602082019050919050565b600060208201905081810360008301526123d68161239a565b9050919050565b7f566f746572207265676973746572656421210000000000000000000000000000600082015250565b6000612413601283611cff565b915061241e826123dd565b601282019050919050565b600061243482612406565b9150819050919050565b7f566f74696e672073746f70656421210000000000000000000000000000000000600082015250565b6000612474600f83611cff565b915061247f8261243e565b600f82019050919050565b600061249582612467565b915081905091905056fea26469706673582212204a1d21b31cc3c80b31eed0980e1790005ea8f62cc4f63e911c3e46c7d05854ee64736f6c634300080d0033",
  "immutableReferences": {},
  "source": "// SPDX-License-Identifier: GPL-3.0\n\npragma solidity ^0.8.13;\n\ncontract Voting {\n\n    address public owner;\n    address public winnerAddress;\n    string public eventName;\n    uint public totalVote;\n    bool votingStarted;\n\n    struct Candidate{\n        string name;\n        uint age;\n        bool registered;\n        address candidateAddress;\n        uint votes;\n    }\n\n    struct Voter{\n        bool registered;\n        bool voted;\n    }\n    event VotingStarted();\n    event success(string indexed msg);\n    mapping(address=>uint) public candidates;\n    Candidate[] public candidateList;\n    mapping(address=>Voter) public voterList;\n\n    constructor(string memory _eventName){\n        owner = msg.sender;\n        eventName = _eventName;\n        totalVote = 0;\n        votingStarted=false;\n    }\n\n\n\n\n    function registerCandidates(string memory _name, uint _age, address _candidateAddress) external {\n        require(msg.sender == owner, \"Only owner can register Candidate!!\");\n        require(_candidateAddress != owner, \"Owner can not participate!!\");\n        require(candidates[_candidateAddress] == 0, \"Candidate already registered\");\n        Candidate memory candidate = Candidate({\n            name: _name,\n            age: _age,\n            registered: true,\n            votes: 0,\n            candidateAddress: _candidateAddress\n        });\n        if(candidateList.length == 0){ //not pushing any candidate on location zero;\n            candidateList.push();\n        }\n        candidates[_candidateAddress] = candidateList.length;\n        candidateList.push(candidate);\n        emit success(\"Candidate registered!!\");\n    }\n\n    function whiteListAddress(address _voterAddress) external {\n        require(_voterAddress != owner, \"Owner can not vote!!\");\n        require(msg.sender == owner, \"Only owner can whitelist the addresses!!\");\n        require(voterList[_voterAddress].registered == false, \"Voter already registered!!\");\n        Voter memory voter = Voter({\n            registered: true,\n            voted: false\n        });\n\n        voterList[_voterAddress] = voter;\n        emit success(\"Voter registered!!\");\n    }\n\n    function startVoting() external {\n        require(msg.sender == owner, \"Only owner can start voting!!\");\n        votingStarted = true;\n        emit VotingStarted();\n        emit success(\"Voting Started!!\");\n    }\n\n    function putVote(address _candidateAddress) external {\n        require(votingStarted == true, \"Voting not started yet or ended!!\");\n        require(msg.sender != owner, \"Owner can not vote!!\");\n        require(voterList[msg.sender].registered == true, \"Voter not registered!!\");\n        require(voterList[msg.sender].voted == false, \"Already voted!!\");\n        require(candidateList[candidates[_candidateAddress]].registered == true, \"Candidate not registered\");\n\n        candidateList[candidates[_candidateAddress]].votes++;\n        voterList[msg.sender].voted =true;\n\n        uint candidateVotes = candidateList[candidates[_candidateAddress]].votes;\n\n        if(totalVote < candidateVotes){\n            totalVote = candidateVotes;\n            winnerAddress = _candidateAddress;\n        }\n        emit success(\"Voted !!\");\n        \n    }\n\n    function stopVoting() external {\n        require(msg.sender == owner, \"Only owner can start voting!!\");\n        votingStarted = false;\n        emit success(\"Voting stoped!!\");\n    }\n\n    function getAllCandidate() external view returns(Candidate[] memory list){\n        return candidateList;\n    }\n\n    function votingStatus() external view returns(bool){\n        return votingStarted;\n    }\n\n    function getWinner() public view returns(Candidate memory candidate){\n        // require(msg.sender == owner, \"Only owner can declare winner!!\");\n        return candidateList[candidates[winnerAddress]];\n    }\n}",
  "sourcePath": "/Users/suyash/Project/VotingDapp/contracts/Voting.sol",
  "compiler": {
    "name": "solc",
    "version": "0.8.13+commit.abaa5c0e.Emscripten.clang"
  },
  "schemaVersion": "3.4.16",
  "updatedAt": "2024-03-15T07:35:42.417Z",
  "networkType": "ethereum",
  "devdoc": {
    "kind": "dev",
    "methods": {},
    "version": 1
  },
  "userdoc": {
    "kind": "user",
    "methods": {},
    "version": 1
  }
}