{
  "contractName": "Voting",
  "abi": [
    {
      "inputs": [
        {
          "internalType": "string",
          "name": "_eventName",
          "type": "string"
        }
      ],
      "stateMutability": "nonpayable",
      "type": "constructor"
    },
    {
      "anonymous": false,
      "inputs": [],
      "name": "VotingStarted",
      "type": "event"
    },
    {
      "anonymous": false,
      "inputs": [
        {
          "indexed": true,
          "internalType": "string",
          "name": "msg",
          "type": "string"
        }
      ],
      "name": "success",
      "type": "event"
    },
    {
      "inputs": [
        {
          "internalType": "uint256",
          "name": "",
          "type": "uint256"
        }
      ],
      "name": "candidateList",
      "outputs": [
        {
          "internalType": "string",
          "name": "name",
          "type": "string"
        },
        {
          "internalType": "uint256",
          "name": "age",
          "type": "uint256"
        },
        {
          "internalType": "bool",
          "name": "registered",
          "type": "bool"
        },
        {
          "internalType": "address",
          "name": "candidateAddress",
          "type": "address"
        },
        {
          "internalType": "uint256",
          "name": "votes",
          "type": "uint256"
        }
      ],
      "stateMutability": "view",
      "type": "function",
      "constant": true
    },
    {
      "inputs": [
        {
          "internalType": "address",
          "name": "",
          "type": "address"
        }
      ],
      "name": "candidates",
      "outputs": [
        {
          "internalType": "uint256",
          "name": "",
          "type": "uint256"
        }
      ],
      "stateMutability": "view",
      "type": "function",
      "constant": true
    },
    {
      "inputs": [],
      "name": "eventName",
      "outputs": [
        {
          "internalType": "string",
          "name": "",
          "type": "string"
        }
      ],
      "stateMutability": "view",
      "type": "function",
      "constant": true
    },
    {
      "inputs": [],
      "name": "owner",
      "outputs": [
        {
          "internalType": "address",
          "name": "",
          "type": "address"
        }
      ],
      "stateMutability": "view",
      "type": "function",
      "constant": true
    },
    {
      "inputs": [],
      "name": "totalVote",
      "outputs": [
        {
          "internalType": "uint256",
          "name": "",
          "type": "uint256"
        }
      ],
      "stateMutability": "view",
      "type": "function",
      "constant": true
    },
    {
      "inputs": [
        {
          "internalType": "address",
          "name": "",
          "type": "address"
        }
      ],
      "name": "voterList",
      "outputs": [
        {
          "internalType": "bool",
          "name": "registered",
          "type": "bool"
        },
        {
          "internalType": "bool",
          "name": "voted",
          "type": "bool"
        }
      ],
      "stateMutability": "view",
      "type": "function",
      "constant": true
    },
    {
      "inputs": [],
      "name": "winnerAddress",
      "outputs": [
        {
          "internalType": "address",
          "name": "",
          "type": "address"
        }
      ],
      "stateMutability": "view",
      "type": "function",
      "constant": true
    },
    {
      "inputs": [
        {
          "internalType": "string",
          "name": "_name",
          "type": "string"
        },
        {
          "internalType": "uint256",
          "name": "_age",
          "type": "uint256"
        },
        {
          "internalType": "address",
          "name": "_candidateAddress",
          "type": "address"
        }
      ],
      "name": "registerCandidates",
      "outputs": [],
      "stateMutability": "nonpayable",
      "type": "function"
    },
    {
      "inputs": [
        {
          "internalType": "address",
          "name": "_voterAddress",
          "type": "address"
        }
      ],
      "name": "whiteListAddress",
      "outputs": [],
      "stateMutability": "nonpayable",
      "type": "function"
    },
    {
      "inputs": [],
      "name": "startVoting",
      "outputs": [],
      "stateMutability": "nonpayable",
      "type": "function"
    },
    {
      "inputs": [
        {
          "internalType": "address",
          "name": "_candidateAddress",
          "type": "address"
        }
      ],
      "name": "putVote",
      "outputs": [],
      "stateMutability": "nonpayable",
      "type": "function"
    },
    {
      "inputs": [],
      "name": "stopVoting",
      "outputs": [],
      "stateMutability": "nonpayable",
      "type": "function"
    },
    {
      "inputs": [],
      "name": "getAllCandidate",
      "outputs": [
        {
          "components": [
            {
              "internalType": "string",
              "name": "name",
              "type": "string"
            },
            {
              "internalType": "uint256",
              "name": "age",
              "type": "uint256"
            },
            {
              "internalType": "bool",
              "name": "registered",
              "type": "bool"
            },
            {
              "internalType": "address",
              "name": "candidateAddress",
              "type": "address"
            },
            {
              "internalType": "uint256",
              "name": "votes",
              "type": "uint256"
            }
          ],
          "internalType": "struct Voting.Candidate[]",
          "name": "list",
          "type": "tuple[]"
        }
      ],
      "stateMutability": "view",
      "type": "function",
      "constant": true
    },
    {
      "inputs": [],
      "name": "votingStatus",
      "outputs": [
        {
          "internalType": "bool",
          "name": "",
          "type": "bool"
        }
      ],
      "stateMutability": "view",
      "type": "function",
      "constant": true
    },
    {
      "inputs": [],
      "name": "getWinner",
      "outputs": [
        {
          "components": [
            {
              "internalType": "string",
              "name": "name",
              "type": "string"
            },
            {
              "internalType": "uint256",
              "name": "age",
              "type": "uint256"
            },
            {
              "internalType": "bool",
              "name": "registered",
              "type": "bool"
            },
            {
              "internalType": "address",
              "name": "candidateAddress",
              "type": "address"
            },
            {
              "internalType": "uint256",
              "name": "votes",
              "type": "uint256"
            }
          ],
          "internalType": "struct Voting.Candidate",
          "name": "candidate",
          "type": "tuple"
        }
      ],
      "stateMutability": "view",
      "type": "function",
      "constant": true
    }
  ],
  "bytecode": "0x608060405234801562000010575f80fd5b5060405162002c3938038062002c39833981810160405281019062000036919062000233565b335f806101000a81548173ffffffffffffffffffffffffffffffffffffffff021916908373ffffffffffffffffffffffffffffffffffffffff1602179055508060029081620000869190620004b9565b505f6003819055505f60045f6101000a81548160ff021916908315150217905550506200059d565b5f604051905090565b5f80fd5b5f80fd5b5f80fd5b5f80fd5b5f601f19601f8301169050919050565b7f4e487b71000000000000000000000000000000000000000000000000000000005f52604160045260245ffd5b6200010f82620000c7565b810181811067ffffffffffffffff82111715620001315762000130620000d7565b5b80604052505050565b5f62000145620000ae565b905062000153828262000104565b919050565b5f67ffffffffffffffff821115620001755762000174620000d7565b5b6200018082620000c7565b9050602081019050919050565b5f5b83811015620001ac5780820151818401526020810190506200018f565b5f8484015250505050565b5f620001cd620001c78462000158565b6200013a565b905082815260208101848484011115620001ec57620001eb620000c3565b5b620001f98482856200018d565b509392505050565b5f82601f830112620002185762000217620000bf565b5b81516200022a848260208601620001b7565b91505092915050565b5f602082840312156200024b576200024a620000b7565b5b5f82015167ffffffffffffffff8111156200026b576200026a620000bb565b5b620002798482850162000201565b91505092915050565b5f81519050919050565b7f4e487b71000000000000000000000000000000000000000000000000000000005f52602260045260245ffd5b5f6002820490506001821680620002d157607f821691505b602082108103620002e757620002e66200028c565b5b50919050565b5f819050815f5260205f209050919050565b5f6020601f8301049050919050565b5f82821b905092915050565b5f600883026200034b7fffffffffffffffffffffffffffffffffffffffffffffffffffffffffffffffff826200030e565b6200035786836200030e565b95508019841693508086168417925050509392505050565b5f819050919050565b5f819050919050565b5f620003a16200039b62000395846200036f565b62000378565b6200036f565b9050919050565b5f819050919050565b620003bc8362000381565b620003d4620003cb82620003a8565b8484546200031a565b825550505050565b5f90565b620003ea620003dc565b620003f7818484620003b1565b505050565b5b818110156200041e57620004125f82620003e0565b600181019050620003fd565b5050565b601f8211156200046d576200043781620002ed565b6200044284620002ff565b8101602085101562000452578190505b6200046a6200046185620002ff565b830182620003fc565b50505b505050565b5f82821c905092915050565b5f6200048f5f198460080262000472565b1980831691505092915050565b5f620004a983836200047e565b9150826002028217905092915050565b620004c48262000282565b67ffffffffffffffff811115620004e057620004df620000d7565b5b620004ec8254620002b9565b620004f982828562000422565b5f60209050601f8311600181146200052f575f84156200051a578287015190505b6200052685826200049c565b86555062000595565b601f1984166200053f86620002ed565b5f5b82811015620005685784890151825560018201915060208501945060208101905062000541565b8683101562000588578489015162000584601f8916826200047e565b8355505b6001600288020188555050505b505050505050565b61268e80620005ab5f395ff3fe608060405234801561000f575f80fd5b50600436106100f3575f3560e01c80638da5cb5b11610095578063ed7a4e0b11610064578063ed7a4e0b14610262578063efd5297c14610280578063f1cea4c71461029e578063fab2f86b146102bc576100f3565b80638da5cb5b146101d65780638e7ea5b2146101f4578063b13c744b14610212578063cf52a7b214610246576100f3565b80633c71a6d5116100d15780633c71a6d5146101505780638043c9c01461016c57806388fb6f741461018a5780638ab66a90146101a6576100f3565b806303b4caed146100f757806319f41a40146101285780631ec6b60a14610146575b5f80fd5b610111600480360381019061010c9190611599565b6102c6565b60405161011f9291906115de565b60405180910390f35b6101306102fe565b60405161013d9190611605565b60405180910390f35b61014e610313565b005b61016a6004803603810190610165919061178d565b610428565b005b610174610773565b6040516101819190611873565b60405180910390f35b6101a4600480360381019061019f9190611599565b6107ff565b005b6101c060048036038101906101bb9190611599565b610c7f565b6040516101cd91906118a2565b60405180910390f35b6101de610c94565b6040516101eb91906118ca565b60405180910390f35b6101fc610cb7565b60405161020991906119cb565b60405180910390f35b61022c600480360381019061022791906119eb565b610eed565b60405161023d959493929190611a16565b60405180910390f35b610260600480360381019061025b9190611599565b610fe0565b005b61026a611269565b60405161027791906118ca565b60405180910390f35b61028861128e565b6040516102959190611b9c565b60405180910390f35b6102a66113fd565b6040516102b391906118a2565b60405180910390f35b6102c4611403565b005b6007602052805f5260405f205f91509050805f015f9054906101000a900460ff1690805f0160019054906101000a900460ff16905082565b5f60045f9054906101000a900460ff16905090565b5f8054906101000a900473ffffffffffffffffffffffffffffffffffffffff1673ffffffffffffffffffffffffffffffffffffffff163373ffffffffffffffffffffffffffffffffffffffff16146103a0576040517f08c379a000000000000000000000000000000000000000000000000000000000815260040161039790611c06565b60405180910390fd5b600160045f6101000a81548160ff0219169083151502179055507f877e2548498f42b7975a186b94ef1d32c86d420b7b806dd2be2bea293b89590460405160405180910390a16040516103f290611c78565b60405180910390207f68f068b2f0d02fca99bc8285b62fce8668fe16b7c6a810351ea25bff358c0dd860405160405180910390a2565b5f8054906101000a900473ffffffffffffffffffffffffffffffffffffffff1673ffffffffffffffffffffffffffffffffffffffff163373ffffffffffffffffffffffffffffffffffffffff16146104b5576040517f08c379a00000000000000000000000000000000000000000000000000000000081526004016104ac90611cfc565b60405180910390fd5b5f8054906101000a900473ffffffffffffffffffffffffffffffffffffffff1673ffffffffffffffffffffffffffffffffffffffff168173ffffffffffffffffffffffffffffffffffffffff1603610542576040517f08c379a000000000000000000000000000000000000000000000000000000000815260040161053990611d64565b60405180910390fd5b5f60055f8373ffffffffffffffffffffffffffffffffffffffff1673ffffffffffffffffffffffffffffffffffffffff1681526020019081526020015f2054146105c1576040517f08c379a00000000000000000000000000000000000000000000000000000000081526004016105b890611dcc565b60405180910390fd5b5f6040518060a001604052808581526020018481526020016001151581526020018373ffffffffffffffffffffffffffffffffffffffff1681526020015f81525090505f6006805490500361062d57600660018160018154018082558091505003905f5260205f209050505b60068054905060055f8473ffffffffffffffffffffffffffffffffffffffff1673ffffffffffffffffffffffffffffffffffffffff1681526020019081526020015f2081905550600681908060018154018082558091505060019003905f5260205f2090600402015f909190919091505f820151815f0190816106b09190611fe4565b50602082015181600101556040820151816002015f6101000a81548160ff02191690831515021790555060608201518160020160016101000a81548173ffffffffffffffffffffffffffffffffffffffff021916908373ffffffffffffffffffffffffffffffffffffffff160217905550608082015181600301555050604051610739906120fd565b60405180910390207f68f068b2f0d02fca99bc8285b62fce8668fe16b7c6a810351ea25bff358c0dd860405160405180910390a250505050565b6002805461078090611e17565b80601f01602080910402602001604051908101604052809291908181526020018280546107ac90611e17565b80156107f75780601f106107ce576101008083540402835291602001916107f7565b820191905f5260205f20905b8154815290600101906020018083116107da57829003601f168201915b505050505081565b6001151560045f9054906101000a900460ff16151514610854576040517f08c379a000000000000000000000000000000000000000000000000000000000815260040161084b90612181565b60405180910390fd5b5f8054906101000a900473ffffffffffffffffffffffffffffffffffffffff1673ffffffffffffffffffffffffffffffffffffffff163373ffffffffffffffffffffffffffffffffffffffff16036108e1576040517f08c379a00000000000000000000000000000000000000000000000000000000081526004016108d8906121e9565b60405180910390fd5b6001151560075f3373ffffffffffffffffffffffffffffffffffffffff1673ffffffffffffffffffffffffffffffffffffffff1681526020019081526020015f205f015f9054906101000a900460ff16151514610973576040517f08c379a000000000000000000000000000000000000000000000000000000000815260040161096a90612251565b60405180910390fd5b5f151560075f3373ffffffffffffffffffffffffffffffffffffffff1673ffffffffffffffffffffffffffffffffffffffff1681526020019081526020015f205f0160019054906101000a900460ff16151514610a05576040517f08c379a00000000000000000000000000000000000000000000000000000000081526004016109fc906122b9565b60405180910390fd5b60011515600660055f8473ffffffffffffffffffffffffffffffffffffffff1673ffffffffffffffffffffffffffffffffffffffff1681526020019081526020015f205481548110610a5a57610a596122d7565b5b905f5260205f2090600402016002015f9054906101000a900460ff16151514610ab8576040517f08c379a0000000000000000000000000000000000000000000000000000000008152600401610aaf9061234e565b60405180910390fd5b600660055f8373ffffffffffffffffffffffffffffffffffffffff1673ffffffffffffffffffffffffffffffffffffffff1681526020019081526020015f205481548110610b0957610b086122d7565b5b905f5260205f2090600402016003015f815480929190610b2890612399565b9190505550600160075f3373ffffffffffffffffffffffffffffffffffffffff1673ffffffffffffffffffffffffffffffffffffffff1681526020019081526020015f205f0160016101000a81548160ff0219169083151502179055505f600660055f8473ffffffffffffffffffffffffffffffffffffffff1673ffffffffffffffffffffffffffffffffffffffff1681526020019081526020015f205481548110610bd757610bd66122d7565b5b905f5260205f209060040201600301549050806003541015610c3b57806003819055508160015f6101000a81548173ffffffffffffffffffffffffffffffffffffffff021916908373ffffffffffffffffffffffffffffffffffffffff1602179055505b604051610c479061242a565b60405180910390207f68f068b2f0d02fca99bc8285b62fce8668fe16b7c6a810351ea25bff358c0dd860405160405180910390a25050565b6005602052805f5260405f205f915090505481565b5f8054906101000a900473ffffffffffffffffffffffffffffffffffffffff1681565b610cbf6114eb565b5f8054906101000a900473ffffffffffffffffffffffffffffffffffffffff1673ffffffffffffffffffffffffffffffffffffffff163373ffffffffffffffffffffffffffffffffffffffff1614610d4c576040517f08c379a0000000000000000000000000000000000000000000000000000000008152600401610d4390612488565b60405180910390fd5b600660055f60015f9054906101000a900473ffffffffffffffffffffffffffffffffffffffff1673ffffffffffffffffffffffffffffffffffffffff1673ffffffffffffffffffffffffffffffffffffffff1681526020019081526020015f205481548110610dbe57610dbd6122d7565b5b905f5260205f2090600402016040518060a00160405290815f82018054610de490611e17565b80601f0160208091040260200160405190810160405280929190818152602001828054610e1090611e17565b8015610e5b5780601f10610e3257610100808354040283529160200191610e5b565b820191905f5260205f20905b815481529060010190602001808311610e3e57829003601f168201915b5050505050815260200160018201548152602001600282015f9054906101000a900460ff161515151581526020016002820160019054906101000a900473ffffffffffffffffffffffffffffffffffffffff1673ffffffffffffffffffffffffffffffffffffffff1673ffffffffffffffffffffffffffffffffffffffff168152602001600382015481525050905090565b60068181548110610efc575f80fd5b905f5260205f2090600402015f91509050805f018054610f1b90611e17565b80601f0160208091040260200160405190810160405280929190818152602001828054610f4790611e17565b8015610f925780601f10610f6957610100808354040283529160200191610f92565b820191905f5260205f20905b815481529060010190602001808311610f7557829003601f168201915b505050505090806001015490806002015f9054906101000a900460ff16908060020160019054906101000a900473ffffffffffffffffffffffffffffffffffffffff16908060030154905085565b5f8054906101000a900473ffffffffffffffffffffffffffffffffffffffff1673ffffffffffffffffffffffffffffffffffffffff168173ffffffffffffffffffffffffffffffffffffffff160361106d576040517f08c379a0000000000000000000000000000000000000000000000000000000008152600401611064906121e9565b60405180910390fd5b5f8054906101000a900473ffffffffffffffffffffffffffffffffffffffff1673ffffffffffffffffffffffffffffffffffffffff163373ffffffffffffffffffffffffffffffffffffffff16146110fa576040517f08c379a00000000000000000000000000000000000000000000000000000000081526004016110f190612516565b60405180910390fd5b5f151560075f8373ffffffffffffffffffffffffffffffffffffffff1673ffffffffffffffffffffffffffffffffffffffff1681526020019081526020015f205f015f9054906101000a900460ff1615151461118b576040517f08c379a00000000000000000000000000000000000000000000000000000000081526004016111829061257e565b60405180910390fd5b5f60405180604001604052806001151581526020015f151581525090508060075f8473ffffffffffffffffffffffffffffffffffffffff1673ffffffffffffffffffffffffffffffffffffffff1681526020019081526020015f205f820151815f015f6101000a81548160ff0219169083151502179055506020820151815f0160016101000a81548160ff021916908315150217905550905050604051611231906125e6565b60405180910390207f68f068b2f0d02fca99bc8285b62fce8668fe16b7c6a810351ea25bff358c0dd860405160405180910390a25050565b60015f9054906101000a900473ffffffffffffffffffffffffffffffffffffffff1681565b60606006805480602002602001604051908101604052809291908181526020015f905b828210156113f4578382905f5260205f2090600402016040518060a00160405290815f820180546112e190611e17565b80601f016020809104026020016040519081016040528092919081815260200182805461130d90611e17565b80156113585780601f1061132f57610100808354040283529160200191611358565b820191905f5260205f20905b81548152906001019060200180831161133b57829003601f168201915b5050505050815260200160018201548152602001600282015f9054906101000a900460ff161515151581526020016002820160019054906101000a900473ffffffffffffffffffffffffffffffffffffffff1673ffffffffffffffffffffffffffffffffffffffff1673ffffffffffffffffffffffffffffffffffffffff168152602001600382015481525050815260200190600101906112b1565b50505050905090565b60035481565b5f8054906101000a900473ffffffffffffffffffffffffffffffffffffffff1673ffffffffffffffffffffffffffffffffffffffff163373ffffffffffffffffffffffffffffffffffffffff1614611490576040517f08c379a000000000000000000000000000000000000000000000000000000000815260040161148790611c06565b60405180910390fd5b5f60045f6101000a81548160ff0219169083151502179055506040516114b590612644565b60405180910390207f68f068b2f0d02fca99bc8285b62fce8668fe16b7c6a810351ea25bff358c0dd860405160405180910390a2565b6040518060a00160405280606081526020015f81526020015f151581526020015f73ffffffffffffffffffffffffffffffffffffffff1681526020015f81525090565b5f604051905090565b5f80fd5b5f80fd5b5f73ffffffffffffffffffffffffffffffffffffffff82169050919050565b5f6115688261153f565b9050919050565b6115788161155e565b8114611582575f80fd5b50565b5f813590506115938161156f565b92915050565b5f602082840312156115ae576115ad611537565b5b5f6115bb84828501611585565b91505092915050565b5f8115159050919050565b6115d8816115c4565b82525050565b5f6040820190506115f15f8301856115cf565b6115fe60208301846115cf565b9392505050565b5f6020820190506116185f8301846115cf565b92915050565b5f80fd5b5f80fd5b5f601f19601f8301169050919050565b7f4e487b71000000000000000000000000000000000000000000000000000000005f52604160045260245ffd5b61166c82611626565b810181811067ffffffffffffffff8211171561168b5761168a611636565b5b80604052505050565b5f61169d61152e565b90506116a98282611663565b919050565b5f67ffffffffffffffff8211156116c8576116c7611636565b5b6116d182611626565b9050602081019050919050565b828183375f83830152505050565b5f6116fe6116f9846116ae565b611694565b90508281526020810184848401111561171a57611719611622565b5b6117258482856116de565b509392505050565b5f82601f8301126117415761174061161e565b5b81356117518482602086016116ec565b91505092915050565b5f819050919050565b61176c8161175a565b8114611776575f80fd5b50565b5f8135905061178781611763565b92915050565b5f805f606084860312156117a4576117a3611537565b5b5f84013567ffffffffffffffff8111156117c1576117c061153b565b5b6117cd8682870161172d565b93505060206117de86828701611779565b92505060406117ef86828701611585565b9150509250925092565b5f81519050919050565b5f82825260208201905092915050565b5f5b83811015611830578082015181840152602081019050611815565b5f8484015250505050565b5f611845826117f9565b61184f8185611803565b935061185f818560208601611813565b61186881611626565b840191505092915050565b5f6020820190508181035f83015261188b818461183b565b905092915050565b61189c8161175a565b82525050565b5f6020820190506118b55f830184611893565b92915050565b6118c48161155e565b82525050565b5f6020820190506118dd5f8301846118bb565b92915050565b5f82825260208201905092915050565b5f6118fd826117f9565b61190781856118e3565b9350611917818560208601611813565b61192081611626565b840191505092915050565b6119348161175a565b82525050565b611943816115c4565b82525050565b6119528161155e565b82525050565b5f60a083015f8301518482035f86015261197282826118f3565b9150506020830151611987602086018261192b565b50604083015161199a604086018261193a565b5060608301516119ad6060860182611949565b5060808301516119c0608086018261192b565b508091505092915050565b5f6020820190508181035f8301526119e38184611958565b905092915050565b5f60208284031215611a00576119ff611537565b5b5f611a0d84828501611779565b91505092915050565b5f60a0820190508181035f830152611a2e818861183b565b9050611a3d6020830187611893565b611a4a60408301866115cf565b611a5760608301856118bb565b611a646080830184611893565b9695505050505050565b5f81519050919050565b5f82825260208201905092915050565b5f819050602082019050919050565b5f60a083015f8301518482035f860152611ab182826118f3565b9150506020830151611ac6602086018261192b565b506040830151611ad9604086018261193a565b506060830151611aec6060860182611949565b506080830151611aff608086018261192b565b508091505092915050565b5f611b158383611a97565b905092915050565b5f602082019050919050565b5f611b3382611a6e565b611b3d8185611a78565b935083602082028501611b4f85611a88565b805f5b85811015611b8a5784840389528151611b6b8582611b0a565b9450611b7683611b1d565b925060208a01995050600181019050611b52565b50829750879550505050505092915050565b5f6020820190508181035f830152611bb48184611b29565b905092915050565b7f4f6e6c79206f776e65722063616e20737461727420766f74696e6721210000005f82015250565b5f611bf0601d83611803565b9150611bfb82611bbc565b602082019050919050565b5f6020820190508181035f830152611c1d81611be4565b9050919050565b5f81905092915050565b7f566f74696e6720537461727465642121000000000000000000000000000000005f82015250565b5f611c62601083611c24565b9150611c6d82611c2e565b601082019050919050565b5f611c8282611c56565b9150819050919050565b7f4f6e6c79206f776e65722063616e2072656769737465722043616e64696461745f8201527f6521210000000000000000000000000000000000000000000000000000000000602082015250565b5f611ce6602383611803565b9150611cf182611c8c565b604082019050919050565b5f6020820190508181035f830152611d1381611cda565b9050919050565b7f4f776e65722063616e206e6f74207061727469636970617465212100000000005f82015250565b5f611d4e601b83611803565b9150611d5982611d1a565b602082019050919050565b5f6020820190508181035f830152611d7b81611d42565b9050919050565b7f43616e64696461746520616c72656164792072656769737465726564000000005f82015250565b5f611db6601c83611803565b9150611dc182611d82565b602082019050919050565b5f6020820190508181035f830152611de381611daa565b9050919050565b7f4e487b71000000000000000000000000000000000000000000000000000000005f52602260045260245ffd5b5f6002820490506001821680611e2e57607f821691505b602082108103611e4157611e40611dea565b5b50919050565b5f819050815f5260205f209050919050565b5f6020601f8301049050919050565b5f82821b905092915050565b5f60088302611ea37fffffffffffffffffffffffffffffffffffffffffffffffffffffffffffffffff82611e68565b611ead8683611e68565b95508019841693508086168417925050509392505050565b5f819050919050565b5f611ee8611ee3611ede8461175a565b611ec5565b61175a565b9050919050565b5f819050919050565b611f0183611ece565b611f15611f0d82611eef565b848454611e74565b825550505050565b5f90565b611f29611f1d565b611f34818484611ef8565b505050565b5b81811015611f5757611f4c5f82611f21565b600181019050611f3a565b5050565b601f821115611f9c57611f6d81611e47565b611f7684611e59565b81016020851015611f85578190505b611f99611f9185611e59565b830182611f39565b50505b505050565b5f82821c905092915050565b5f611fbc5f1984600802611fa1565b1980831691505092915050565b5f611fd48383611fad565b9150826002028217905092915050565b611fed826117f9565b67ffffffffffffffff81111561200657612005611636565b5b6120108254611e17565b61201b828285611f5b565b5f60209050601f83116001811461204c575f841561203a578287015190505b6120448582611fc9565b8655506120ab565b601f19841661205a86611e47565b5f5b828110156120815784890151825560018201915060208501945060208101905061205c565b8683101561209e578489015161209a601f891682611fad565b8355505b6001600288020188555050505b505050505050565b7f43616e64696461746520726567697374657265642121000000000000000000005f82015250565b5f6120e7601683611c24565b91506120f2826120b3565b601682019050919050565b5f612107826120db565b9150819050919050565b7f566f74696e67206e6f74207374617274656420796574206f7220656e646564215f8201527f2100000000000000000000000000000000000000000000000000000000000000602082015250565b5f61216b602183611803565b915061217682612111565b604082019050919050565b5f6020820190508181035f8301526121988161215f565b9050919050565b7f4f776e65722063616e206e6f7420766f746521210000000000000000000000005f82015250565b5f6121d3601483611803565b91506121de8261219f565b602082019050919050565b5f6020820190508181035f830152612200816121c7565b9050919050565b7f566f746572206e6f7420726567697374657265642121000000000000000000005f82015250565b5f61223b601683611803565b915061224682612207565b602082019050919050565b5f6020820190508181035f8301526122688161222f565b9050919050565b7f416c726561647920766f746564212100000000000000000000000000000000005f82015250565b5f6122a3600f83611803565b91506122ae8261226f565b602082019050919050565b5f6020820190508181035f8301526122d081612297565b9050919050565b7f4e487b71000000000000000000000000000000000000000000000000000000005f52603260045260245ffd5b7f43616e646964617465206e6f74207265676973746572656400000000000000005f82015250565b5f612338601883611803565b915061234382612304565b602082019050919050565b5f6020820190508181035f8301526123658161232c565b9050919050565b7f4e487b71000000000000000000000000000000000000000000000000000000005f52601160045260245ffd5b5f6123a38261175a565b91507fffffffffffffffffffffffffffffffffffffffffffffffffffffffffffffffff82036123d5576123d461236c565b5b600182019050919050565b7f566f7465642021210000000000000000000000000000000000000000000000005f82015250565b5f612414600883611c24565b915061241f826123e0565b600882019050919050565b5f61243482612408565b9150819050919050565b7f4f6e6c79206f776e65722063616e206465636c6172652077696e6e65722121005f82015250565b5f612472601f83611803565b915061247d8261243e565b602082019050919050565b5f6020820190508181035f83015261249f81612466565b9050919050565b7f4f6e6c79206f776e65722063616e2077686974656c69737420746865206164645f8201527f7265737365732121000000000000000000000000000000000000000000000000602082015250565b5f612500602883611803565b915061250b826124a6565b604082019050919050565b5f6020820190508181035f83015261252d816124f4565b9050919050565b7f566f74657220616c7265616479207265676973746572656421210000000000005f82015250565b5f612568601a83611803565b915061257382612534565b602082019050919050565b5f6020820190508181035f8301526125958161255c565b9050919050565b7f566f7465722072656769737465726564212100000000000000000000000000005f82015250565b5f6125d0601283611c24565b91506125db8261259c565b601282019050919050565b5f6125f0826125c4565b9150819050919050565b7f566f74696e672073746f706564212100000000000000000000000000000000005f82015250565b5f61262e600f83611c24565b9150612639826125fa565b600f82019050919050565b5f61264e82612622565b915081905091905056fea26469706673582212201b4d004e86af2f71abce9562475c223abdf9ffa08a9871c115531a753fd4fba864736f6c63430008170033",
  "immutableReferences": {},
  "source": "// SPDX-License-Identifier: GPL-3.0\n\npragma solidity ^0.8.13;\n\ncontract Voting {\n\n    address public owner;\n    address public winnerAddress;\n    string public eventName;\n    uint public totalVote;\n    bool votingStarted;\n\n    struct Candidate{\n        string name;\n        uint age;\n        bool registered;\n        address candidateAddress;\n        uint votes;\n    }\n\n    struct Voter{\n        bool registered;\n        bool voted;\n    }\n    event VotingStarted();\n    event success(string indexed msg);\n    mapping(address=>uint) public candidates;\n    Candidate[] public candidateList;\n    mapping(address=>Voter) public voterList;\n\n    constructor(string memory _eventName){\n        owner = msg.sender;\n        eventName = _eventName;\n        totalVote = 0;\n        votingStarted=false;\n    }\n\n    function registerCandidates(string memory _name, uint _age, address _candidateAddress) external {\n        require(msg.sender == owner, \"Only owner can register Candidate!!\");\n        require(_candidateAddress != owner, \"Owner can not participate!!\");\n        require(candidates[_candidateAddress] == 0, \"Candidate already registered\");\n        Candidate memory candidate = Candidate({\n            name: _name,\n            age: _age,\n            registered: true,\n            votes: 0,\n            candidateAddress: _candidateAddress\n        });\n        if(candidateList.length == 0){ //not pushing any candidate on location zero;\n            candidateList.push();\n        }\n        candidates[_candidateAddress] = candidateList.length;\n        candidateList.push(candidate);\n        emit success(\"Candidate registered!!\");\n    }\n\n    function whiteListAddress(address _voterAddress) external {\n        require(_voterAddress != owner, \"Owner can not vote!!\");\n        require(msg.sender == owner, \"Only owner can whitelist the addresses!!\");\n        require(voterList[_voterAddress].registered == false, \"Voter already registered!!\");\n        Voter memory voter = Voter({\n            registered: true,\n            voted: false\n        });\n\n        voterList[_voterAddress] = voter;\n        emit success(\"Voter registered!!\");\n    }\n\n    function startVoting() external {\n        require(msg.sender == owner, \"Only owner can start voting!!\");\n        votingStarted = true;\n        emit VotingStarted();\n        emit success(\"Voting Started!!\");\n    }\n\n    function putVote(address _candidateAddress) external {\n        require(votingStarted == true, \"Voting not started yet or ended!!\");\n        require(msg.sender != owner, \"Owner can not vote!!\");\n        require(voterList[msg.sender].registered == true, \"Voter not registered!!\");\n        require(voterList[msg.sender].voted == false, \"Already voted!!\");\n        require(candidateList[candidates[_candidateAddress]].registered == true, \"Candidate not registered\");\n\n        candidateList[candidates[_candidateAddress]].votes++;\n        voterList[msg.sender].voted =true;\n\n        uint candidateVotes = candidateList[candidates[_candidateAddress]].votes;\n\n        if(totalVote < candidateVotes){\n            totalVote = candidateVotes;\n            winnerAddress = _candidateAddress;\n        }\n        emit success(\"Voted !!\");\n        \n    }\n\n    function stopVoting() external {\n        require(msg.sender == owner, \"Only owner can start voting!!\");\n        votingStarted = false;\n        emit success(\"Voting stoped!!\");\n    }\n\n    function getAllCandidate() external view returns(Candidate[] memory list){\n        return candidateList;\n    }\n\n    function votingStatus() external view returns(bool){\n        return votingStarted;\n    }\n\n    function getWinner() public view returns(Candidate memory candidate){\n        require(msg.sender == owner, \"Only owner can declare winner!!\");\n        return candidateList[candidates[winnerAddress]];\n    }\n}",
  "sourcePath": "/Users/suyash/Project/VotingDapp/contracts/Voting.sol",
  "compiler": {
    "name": "solc",
    "version": "0.8.23+commit.f704f362.Emscripten.clang"
  },
  "schemaVersion": "3.4.16",
  "updatedAt": "2024-02-15T04:38:17.875Z",
  "networkType": "ethereum",
  "devdoc": {
    "kind": "dev",
    "methods": {},
    "version": 1
  },
  "userdoc": {
    "kind": "user",
    "methods": {},
    "version": 1
  }
}